:0A89EF0042044A00004204481770D9
:10A6770090044AEEF0A3EFF07F0912A5CEC2EE7F59
:07A687000A12A5CED2EF225A
:10A5040090044AE0FCA3E0FD7F0912A2B75009D2EF
:10A51400EEE490044AF0A3F0900448E0FCA3E0FDCC
:0AA524007F0A12A2B75002C2EF2214
:10A3C10075985A438780D2DFD2997FC89000FFE405
:10A3D100F0A3DFFCE4900002F0A3F07FFA90000507
:10A3E100E4F0A3DFFCE4900000F0A3F0900004F09F
:01A3F1002249
:10A32B00900002E0FF0475F0C884A3E065F06020A4
:10A33B00128883FE74FF2FF582E43400F583EEF070
:10A34B00900002E004F0E075F0C884E5F0F0C32261
:02A35B00D3220B
:109E2000128883B40A08900000E0900004F09000CB
:109E300000E0FF0475F0FA84AEF0A3E0FD6E70362A
:109E4000EDC39F5011900004E0FF9D400990000079
:109E5000E0FDEF9D4018900000E0FFA3E0FDD39FE0
:109E6000400C900004E0FC9D5004EC9F50089000D2
:109E700004E0900001F0900001E06E6023128883FE
:109E8000FF900000E02405F582E43400F583EFF054
:109E9000900000E004F0E075F0FA84E5F0F0C322F1
:029EA000D322CB
:10A48300900003E0FE900002E06E601C74FF2EF566
:10A4930082E43400F583E0FF900003E004F0E0750C
:0AA4A300F0C884E5F0F08002E4FF49
:01A4AD00228C
:10A4AE00900001E0FE900000E06E601C74052EF539
:10A4BE0082E43400F583E0FF900001E004F0E075E3
:0AA4CE00F0FA84E5F0F08002E4FFEC
:01A4D8002261
:10A6F300900003E0FF900002E0B50703D38001C39D
:01A703002233
:10A70400900001E0FF900000E0B50703D38001C38F
:01A714002222
:10A645009003B5EFF07B017A0379B512A32B500681
:09A655009003B5E0FF227F002212
:0FA7480030990C12A6F3400712A483C2998F997F
:01A7570022DF
:10A68E00309811900451E599F0C2987B017A0479C3
:04A69E0051129E2097
:01A6A2002295
:03A83900000022FA
:10A5A900D2E820E81F90038AE004F070069003893E
:10A5B900E004F0900389E07002A3E070E590045292
:04A5C900E05402F068
:01A5CD00226B
:10A6A300D2E812A839C2E912A839C2E812A839EFD0
:05A6B3002DFF02A2F4DE
:10A2F400E4FEEF30E704D2E98002C2E912A5A91214
:10A30400A839C2E812A839EF25E0FF0EEEB408E23E
:10A31400D2E912A5A912A83930E907900452E054F1
:07A3240001F0C2E802A839B4
:10A42300E4FEFD12A5A912A839EE25E0FE30E901EC
:10A433000EC2E812A8390DEDB408E8EF24FF92E943
:0FA4430012A5A912A839C2E8D2E912A839AF06AA
:01A4520022E7
:10A75800C2E912A83912A5A912A839D2E902A83962
:0BA80F00493243204552524F522100B5
:0B938400900372EBF0A3EAF0A3E9F005
:10938F00E4FD7FA012A6A37F0212A2F47D017FA0AD
:10939F0012A6A3E4FF12A423900384EFF0E4FF12BC
:1093AF00A423900385EFF0E4FF12A423900386EF2C
:1093BF00F0E4FF12A423900387EFF07F0112A423A0
:1093CF00900388EFF012A758900452E0600D7BFFD6
:1093DF007AA8790F7D037F02129D9D900384E0FF91
:1093EF00C4540F75F00AA4FEEF540F2EFF900381A3
:1093FF00E0FBA3E0FAA3E0F9EF1288C9900385E040
:10940F00FFC4540F75F00AA4FEEF540F2EFF900304
:10941F007EE0FBA3E0FAA3E0F9EF1288C990038680
:10942F00E0FF5430C4540F75F00AA4FEEF540F2E12
:10943F00FF90037BE0FBA3E0FAA3E0F9EF1288C9EA
:10944F00900387E0FF5430C4540F75F00AA4FEEF69
:10945F00540F2EFF900378E0FBA3E0FAA3E0F9EF9F
:10946F001288C9900388E0FF5430C4540F75F00A76
:10947F00A4FEEF540F2EFF900375E0FBA3E0FAA3B9
:10948F00E0F9EF1288C9900387E054C0C413135456
:10949F0003FF900372E0FBA3E0FAA3E0F9EF028869
:0194AF00C9F3
:0296BA00AA07FD
:1096BC0090037BE0FE75F00A84C454F0FCEE75F068
:1096CC000A84E5F0540F4CA3F090037AE0FF75F098
:1096DC000A84C454F0FEEF75F00A84E5F0540F4E82
:1096EC0090037DF0900379E0FF75F00A84C454F088
:1096FC00FEEF75F00A84E5F0540F4E547F90037E14
:10970C00F0EB75F00A84C454F0FFEA5403FEC43342
:10971C003354C04FFFEB75F00A84E5F0540F4FA3A0
:10972C00F0ED75F00A84C454F0FFED75F00A84E591
:10973C00F0540F4F541FA3F0E4FD7FA012A6A3E436
:10974C00FF12A2F47F8012A2F412A758E4FD7FA0AE
:10975C0012A6A37F0212A2F490037CE0FF12A2F4E3
:10976C0090037DE0FF12A2F490037EE0FF12A2F4BE
:10977C0090037FE0FF12A2F4900380E0FF12A2F4AA
:10978C0012A758E4FD7FA012A6A3E4FF12A2F4E4F2
:10979C00FF12A2F412A758900452E0600D7BFF7ADE
:0A97AC00A8790F7D037F02129D9D36
:0197B6002290
:108E6D00504F5745522066726F6D2055505321005B
:108E7D004177616974696E6720737461727475707E
:108E8D002E2E2E002D20504F5745522046524F4D1D
:108E9D0020555053002A20504F5745525F5550537F
:108EAD0000504F5745522066726F6D204C696E65AC
:108EBD0000202020202020202020202020202020C5
:108ECD0020202020002D20504F5745522046524F34
:108EDD004D204C494E45002A20504F5745525F4E6C
:108EED004F524D414C005374617274696E67206529
:108EFD006E67696E652E2E2E002A20454E47494E0F
:108F0D00455F535441525400504F5745522066729D
:108F1D006F6D204C696E652020202000456E6769BD
:108F2D006E6520737461727465642E2E2E20200080
:108F3D002A20454E47494E455F57414954494E47B2
:108F4D0000506F776572206261636B212020002ACB
:108F5D0020454E47494E455F53544F5000456E676F
:108F6D00696E6520506F77657220436865636B216C
:108F7D000020202020202020202020202020202004
:108F8D00202020002A20454E47494E455F43484545
:108F9D00434B0052657374617274696E6720656E20
:108FAD0067696E652E2E2E002D20454E47494E4584
:108FBD002050524F424C454D00506F7765722066E0
:108FCD00726F6D20656E67696E65002D20454E4789
:108FDD00494E4520504F5745524544002A20504F89
:108FED005745525F454E47494E4500506F77657264
:108FFD00206261636B206F6E206C696E6520002AA4
:10900D0020504F5745525F52455455524E454400DE
:10901D00506F77657220646F776E20616761696E3E
:10902D00212020004C696E6520706F77657220726B
:10903D00657475726E6564002A20504F5745525FF6
:10904D005357495443484544004177616974696EEB
:10905D00672073746F7020656E672E2000456E67F4
:10906D00696E652073746F707065642020202020F8
:01907D0000F2
:0C89F90041044C0041044D0041044E00BC
:0EA7770090044CE04401F090FFFFF0F000224F
:0EA7850090044CE054FEF090FFFFF0F0002234
:0EA7930090044CE04402F090FFFFF0F0002232
:0EA7A10090044CE054FDF090FFFFF0F0002219
:0EA7AF0090044CE04404F090FFFFF0F0002214
:0EA7BD0090044CE054FBF090FFFFF0F00022FF
:0EA7CB0090044CE04408F090FFFFF0F00022F4
:0EA7D90090044CE054F7F090FFFFF0F00022E7
:0EA7E70090044CE04410F090FFFFF0F00022D0
:0EA7F50090044CE054EFF090FFFFF0F00022D3
:0CA80300E490044CF090FFFFF0F0002205
:10801E0090044DE0B40A00400302841F908031F8B2
:10802E0028287302804F02809E0280D202841F0293
:10803E00814A0281D80282900282D602836702832D
:10804E00E9D293A293B350427BFF7A8E796D7D0174
:10805E007F01129D9D7BFF7A8E797D7D037F0112BC
:10806E009D9D7BFF7A8E799112A5587F077E001217
:10807E00A6777F0812A5CE90044E7401F07BFF7A8E
:10808E008E79A27D02E4FF129D9D12A7D902841F54
:10809E00D293A293B340087BFF7A8E79AE80329052
:1080AE000443E075F064A4FDACF07F0812A2B74063
:1080BE000302841F7BFF7A8E79F37D037F01129D6D
:1080CE009D02824AD293A293B3403A7BFF7A8F7974
:1080DE00157D017F01129D9D7BFF7A8E79BE7D03FA
:1080EE007F01129D9D7BFF7A8E79D212A5587F015A
:1080FE007E0012A677E490044EF07BFF7A8E79E430
:10810E007D020283E312A77712A793900444E075D1
:10811E00F064A4FDACF07F0812A2B7400302841FE6
:10812E007BFF7A8F79297D037F01129D9D90044EEE
:10813E007404F07BFF7A8F793D028358D293A29319
:10814E00B340397BFF7A8F794E7D017F01129D9D61
:10815E007BFF7A8E79BE7D037F01129D9D7F017E0E
:10816E000012A6777F0812A5CE90044E7409F07BFC
:10817E00FF7A8F795C7D02E4FF129D9D900445E0AD
:10818E0075F064A4FDACF07F0812A2B750397BFFE6
:10819E007A8F796A7D017F01129D9D7BFF7A8F799F
:1081AE007E7D037F01129D9D7F017E0012A677903A
:1081BE00044E7405F07BFF7A8F79917D02E4FF12F5
:1081CE009D9D7F0812A5CE02841CD293A293B3402C
:1081DE00397BFF7A8F794E7D017F01129D9D7BFF4A
:1081EE007A8E79BE7D037F01129D9D7F017E0012E6
:1081FE00A6777F0812A5CE90044E7409F07BFF7A05
:10820E008F795C7D02E4FF129D9DD291A291B350B5
:10821E0042900446E075F064A4FDACF07F0812A213
:10822E00B7400302841F7BFF7A8F79A07D037F0105
:10823E00129D9D7BFF7A8F79B512A5587F077E0020
:10824E0012A67790044E7402F07BFF7A8F7906FDAA
:10825E0002835A7BFF7A8F79C67D017F01129D9D25
:10826E007F077E0012A6777BFF7A8F79D812A558EA
:10827E0090044E7406F07BFF7A8F79E97D02E4025A
:10828E0083E3D293A293B340397BFF7A8F79F87D43
:10829E00017F01129D9D7BFF7A8E79BE7D037F014A
:1082AE00129D9D7F017E0012A67790044E7407F0FA
:1082BE007BFF7A90790C7D02E4FF129D9D7F081260
:1082CE00A5CE12A7CB02841FD293A293B350397BB3
:1082DE00FF7A90791D7D017F01129D9D7BFF7A8E25
:1082EE0079BE7D037F01129D9D7F077E0012A677CA
:1082FE007F0812A5CE90044E7406F07BFF7A8F791C
:10830E00E97D02E4FF129D9D900447E075F064A4A0
:10831E00FDACF07F0812A2B7400302841F7BFF7AE8
:10832E009079317D017F01129D9D7BFF7A8E79BE02
:10833E007D037F01129D9D7F017E0012A677900422
:10834E004E7408F07BFF7A9079457D02E4FF129D12
:10835E009D7F0812A5CE02841FD293A293B35034F0
:10836E007BFF7A90791D7D017F01129D9D7BFF7AA7
:10837E008E79BE7D037F01129D9D7F077E0012A622
:10838E00777F0812A5CE90044E7406F07BFF7A8F8D
:10839E0079E9803E12A7D97BFF7A8F79157D017F0F
:1083AE0001129D9D7BFF7A9079567D037F01129D70
:1083BE009D7F017E0012A6777BFF7A8E79D212A561
:1083CE00587F0812A5CE90044E7409F07BFF7A8F69
:1083DE00795C7D02E4FF129D9D80367D2C7C017FB1
:1083EE000812A2B7502B7BFF7A90796A7D037F012A
:1083FE00129D9D7F017E0012A677E490044EF07BC5
:10840E00FF7A8E79E47D02FF129D9D12A78512A739
:0A841E00A190044EE090044DF022FE
:10A0FC00456E67696E652064656C61793A20005322
:10A10C00746172742074696D653A20202000537458
:10A11C006172742064656C61793A20200052657319
:10A12C00746172742064656C61793A00526574755F
:10A13C00726E2064656C61793A2000257325336258
:06A14C0075000002010392
:108A0500C19041043000520431FFA0FCFFA10BFFCF
:0B8A1500A11AFFA129FFA138000000FA
:1097B70012A81A504612A833EF24FE601A14602923
:1097C70024826007248060030298A612A62A9004C8
:1097D700537401F0D21022900430E0D39400400675
:1097E700900430E014F0D21022900430E0C39402C9
:1097F7005006900430E004F0D210222010030298A3
:01980700A6BA
:1098080078877C037D017BFF7AA1794E7E007F04F7
:1098180012885DE490038CF090038CE0FFD39402EF
:10982800507A900430E0FE7C007B012443F9EC344C
:1098380004FAEF29F9EC3AFA128883FD90038BF0C9
:1098480090039074FFF0A374A1F0A37447F0EE2F77
:1098580075F003A42431F582E43404F583E0F9A318
:10986800E0FAA3E0900393C9F0A3EAF0A3E9F0A318
:10987800EDF07A03797212848D90038CE02488F5D8
:1098880082E43403F583E0FD7B017A037972E4FF17
:0E989800129D9D90038CE004F0029820C210F7
:0198A600229F
:108A2000C10D410416004104170041041400410423
:108A3000150041041200410413004203FB000054DE
:108A400003FD20202059592F4D4D2F4444204848E4
:0C8A50003A4D4D3A535341041100C18CC3
:10999700900413E075F00A8424301288C9900413E8
:1099A700E075F00A84E5F024309000011288DB901E
:1099B7000002742F1288DB900412E0FF75F00A840E
:1099C70024309000031288DBEF75F00A84E5F02459
:1099D700309000041288DB900005742F1288DB900A
:1099E7000415E0FF75F00A8424309000061288DB26
:1099F700EF75F00A84E5F024309000071288DB90B9
:109A0700000874201288DB900416E0FF75F00A84C2
:109A170024309000091288DBEF75F00A84E5F02402
:109A27003090000A1288DB90000B743A1288DB90A2
:109A37000417E0FF75F00A84243090000C1288DBCD
:109A4700EF75F00A84E5F0243090000D1288DB9062
:109A5700000E743A1288DB900414E0FF75F00A8454
:109A6700243090000F1288DBEF75F00A84E5F024AC
:079A7700309000100288DBB3
:10A45300301212C2129003FCE004F0700A9003FB66
:10A46300E004F08002C322C39003FCE094649003F1
:0FA47300FBE0648094804006E4F0A3F0D322C3A2
:01A4820022B7
:109BDA007D647C007F0412A04E4003029C7A9004AC
:109BEA0014E004F0E0FF743BC39F5011900417E0A7
:109BFA0004F0EF75F03C84900414E5F0F09004173B
:109C0A00E0FF743BC39F500F900416E004F0EF7519
:109C1A00F03C84A3E5F0F0900416E0FF7417C39FAC
:109C2A00500F900415E004F0EF75F01884A3E5F0E6
:109C3A00F0900415E0FF741EC39F5011900412E0C7
:109C4A0004F0EF75F01F84900415E5F0F09004120B
:109C5A00E0FF740CC39F5018A3E0FE04F0EE75F009
:109C6A006384E5F0F0EF75F00C84900412E5F0F0EF
:019C7A0022C7
:10A232009003757401F0A37404F0A37412F0A37474
:10A2420001F0A37404F0A37415F0A37401F0A374D5
:10A2520004F0A37416F0A37401F0A37404F0A374C1
:10A2620017F0A37401F0A37404F0A37414F07B013B
:07A272007A047913029384C2
:109F1B00300C0FC20C12A2327F0312A5CE7F04129B
:109F2B00A5CE12A4535003129BDA300D417D0A7C4F
:109F3B00007F0312A2B75048900411E0FF741E9FDC
:109F4B004023EF75F00A84E5F070127B017A0479F7
:109F5B00001299977A0379FDE4FF12A0A5900411E2
:109F6B00E004F08016E4900411F0C20D800D7D84A6
:109F7B007C037F0312A2B75007D20D7F0312A5CE2D
:019F8B0022B3
:10A65E00310020003200330063203D20253033626C
:09A66E0075203A2025632020002C
:088A5C0041044F0041045000E9
:07A82C009003EEE07BFF2228
:109A7E0012A82C30E0067AA6795E80047AA6796068
:109A8E007D017F01129D9D12A82C30E1067AA679E8
:109A9E006280047AA679607D017F03129D9D12A8D3
:109AAE002C30E2067AA6796480047AA679607D016C
:109ABE007F05129D9D9003EEE0FF30E302800F9034
:109ACE000450E030E30C90044FE004129AFE900430
:109ADE0050F09003EEE0FF30E402800F900450E06F
:0F9AEE0030E40C90044FE014129AFE900450F0F4
:109AFD0022F07BFF7AA6796690039012892090045C
:109B0D004FE0900393F0A3F07B017A0379721284F6
:109B1D008D7B017A0379727D017F07129D9DE42271
:108A64006037033A2D2D205B2050726163612064CE
:108A740079706C6F6D6F7761204D696368616C20EC
:108A8400466974612C2057535A694220323030357C
:108A94002F32303036205D202D2D0042031E000081
:1094B00090031EE07002A3E0701E7B017A03793AEC
:1094C00012A6B890031EEEF0A3EFF0A374FFF0A372
:1094D00074ECF0E4A3F0A3F07D0C7C007F0212A2F8
:1094E000B740030295B590031EE0FEA3E0FFC390D2
:1094F0000321E09FEE6480F8900320E064809850A0
:109500000EA3E004F07012900320E004F0800A90B3
:10951000032074FFF0A374ECF0E4900324F0A3F0B4
:10952000900324E0FEA3E0FFC39414EE64809480D3
:10953000506C900321E02FFF900320E03EFEC364B7
:1095400080948050067D207F20803490031FE0248B
:10955000FFFD90031EE034FFFCD3EF9DEC6480F828
:10956000EE64809840047F208015900325E0FF90F2
:109570000321E02F243AF582E43403F583E0FF90E1
:109580000325E02426F582E43403F583EFF090030D
:1095900025E004F0708A900324E004F080827B01CF
:1095A0007A037926E4FF12A0A5E4900322F0A3F049
:0595B0007F0212A5CEB0
:0195B5002293
:1080030012A81A501212A833EF247F24FC500280C6
:08801300069004537401F022F1
:10A52E005F0025303262752F25303262752F25304F
:10A53E003262752025303262753A25303262753AB4
:0AA54E00253032627500000201039F
:108AA400C1894103CB004103CD004103CC004603FF
:108AB400CE020202020202C18AC10B4603D4630C35
:048AC4001F173B3B02
:10A3F200900416E09003D1F0900417E09003D2F09D
:10A40200900414E09003D3F0900415E09003D0F090
:10A41200900412E09003CFF0900413E09003CEF08A
:01A422002217
:10A1EA009003D1E0900416F0FE9003D2E0F99004B7
:10A1FA0017F09003D3E0900414F09003D0E0900499
:10A20A0015F0FB9003CFE0900412F0FD9003CEE02E
:10A21A00FF900413F0900379EEF0A3E9F090041490
:08A22A00E090037BF00296BAFC
:10907E00300A2E12A3F2E49003CBF0E0FF24D4F5D5
:10908E0082E43403F583E09003CDF074CE2FF582A5
:10909E00E43403F583E09003CCF0C20A7F0712A5F7
:1090AE00CE12A81A400302914812A833EF24FE6094
:1090BE00231460361460452483600B24FD603D2428
:1090CE0083600302920612A62A9004537401F0D212
:1090DE0009D20A229003CDE0FF9003CCE0C39F504B
:1090EE00069003CCE004F0D209229003CCE0D39496
:1090FE000040069003CCE014F0D209229003CBE09E
:10910E00C394055024E004F0E0FF24CEF582E4344D
:10911E0003F583E09003CCF074D42FF582E434038E
:10912E00F583E09003CDF0800E12A1EA12A62AD2AA
:10913E000A9004537401F0D209227D3C7C007F0713
:10914E0012A2B75030300B199003CBE075F003A488
:10915E0004FF7BFF7AA5792E7D01129D9DC20B80A7
:10916E000F7B017A0379B67D01E4FF129D9DD20B30
:0B917E007F0712A5CE20090302920615
:1091890078727C037D017BFF7AA579547E007F0488
:1091990012885D9003CCE0FF9003CBE024CEF582EA
:1091A900E43403F583EFF090039074FFF0A374A502
:1091B900F0A37430F09003CEE0900393F09003CFC6
:1091C900E0900394F09003D0E0900395F09003D1E0
:1091D900E0900396F09003D2E0900397F09003D3C8
:1091E900E0900398F07B017A0379B612848D7B01B4
:0D91F9007A0379B67D01E4FF129D9DC20945
:019206002245
:10A279002D20555053204641494C205245504F52AC
:10A2890054002D20555053204F4B205245504F52CA
:10A299005400232044312046002320443120540017
:0EA2A90023204430204600232044302054005F
:088AC800C10EC10F410453006F
:109EA200E4FF75F83FD2EBC2ECD2EAC2EBFEEF75EB
:109EB200F00AA4FF0EEEB4FAF5C2EAE4FEEF75F082
:109EC2000AA4FF0EEEB4FAF575F83FD2EBC2ECD25B
:109ED200EAC2EBE4FFFEEF75F00AA4FF0EEEB4FA5D
:109EE200F5C2EAE4FEEF75F00AA4FF0EEEB4FAF54D
:109EF20075F83FD2EBC2ECD2EAC2EBE4FFFEEF759B
:109F0200F00AA4FF0EEEB4FAF5C2EAE4FEEF75F031
:089F12000AA4FF0EEEB4FAF5FB
:019F1A002224
:10A58200E4900372F08FF8C2ECC2EBD2EAFF000F44
:10A59200EFB402FAC2EAD2EBC2ECD2EAE5F820E763
:06A5A200FBC2EAE4F5F83B
:01A5A8002290
:10A5EE008FF8D2ECC2EBD2EA000000C2EAD2EBC284
:0EA5FE00ECD2EAE5F820E7FBC2EAE4F5F82229
:10A6CD00E4FF12A5CE7D117C00E4FF12A2B740037A
:04A6DD000080F222E5
:1098A70012A80312A3C1D2AFD2B9C2BDC2BCC2BBF8
:1098B700C2BA12A60C129EA27F3812A5827F0C1282
:1098C700A5827F0612A5827F0112A5827F0212A5BB
:1098D7008212A6CD12A715200D031294B0129F1B5A
:1098E7007D017C007F0512A04E502B900453E0149D
:1098F700602114600F14601614600E240470171290
:1099070080038012129A7E800D1297B780081290FA
:109917007E80031295B612801E128C47129D151277
:10992700A5047DC87C007F0612A2B750AAD2937BFC
:10993700FF3093067AA2797980047AA2798B12A5EF
:1099470058D291A291B37BFF50067AA2799B8004EB
:109957007AA279A27D02E4FF129D9DD290A290B3D4
:109967007BFF50067AA279A980047AA279B07D029A
:109977007F09129D9D7F0612A5CE12A704500302F0
:0299870098DE68
:0B99890012A4AE900371EFF012A6458F
:039994000298DE58
:108AD0004503E900000000004503EF00000000002E
:108AE0004103FA004503F500000000004503E400DF
:108AF000000000004A03DA0000000000000000004F
:0B8B0000004103EE004103F4FFC1112F
:05A35D009003FAE0FF8F
:10A36200C200C2ED75F8FFEF2403FF74017E00A85E
:10A3720007088005C333CE33CED8F9FFADF8EF5DC1
:0CA382007003D38001C39200D2EDA20052
:01A38E0022AC
:109FF400900372EFF025E024DAF582E43403F5836C
:10A00400E0FEA3E04E701A12A823900372E025E04C
:10A0140024DAF582E43403F583EEF0A3EFF07F0154
:10A024002212A823900372E025E024DAF582E434B6
:10A0340003F583E0FCA3E0245AFDE43CFCD3ED9F4C
:0AA04400EC9E50037F02227F0122F0
:108C47009003FAE0FF24E9F582E43403F583E0B406
:108C570007004003028E60908C65F8282873028C09
:108C67007A028C9D028CF4028D3C028D82028DDE8D
:108C7700028E2112A36250109003FAE024E9F582D4
:108C8700E43403F5837404F09003FAE024EFF582EB
:108C9700E43403028E1B12A35D400FE024E9F58242
:108CA700E43403F5837403F080179003FAE0FF12AE
:108CB7009FF49003FAE024E9F582E43403F583EFA7
:108CC700F09003FAE024EFF582E43403F583E060E3
:108CD70003028E60D2119003FAE09003F4F024EFC0
:108CE700F582E43403F5837401F0028E6012A35D0C
:108CF700400DE024E9F582E43403F5837403F09032
:108D070003FAE024EFF582E43403F583E0FF64011E
:108D17006006EF6003028E60D2119003FAE0FE4412
:108D2700809003F4F074EF2EF582E43403F5837436
:108D370002F0028E6012A35D4039E0FF24E4F58261
:108D4700E43403F583E0FE740AD39E40169003FAD9
:108D5700E0FE24E4F582E43403F583E004F074E9EB
:108D67002E806774E92FF582E43403F5837405F0E8
:108D7700028E609003FAE024E9802C12A35D504430
:108D8700E0FF24F5F582E43403F583E0FE7406D3AF
:108D97009E40219003FAE0FE24F5F582E43403F5C2
:108DA70083E004F074E92EF582E43403F583740458
:108DB700F0028E6074E92FF582E43403F5837406BC
:108DC700F0028E609003FAE024E9F582E43403F5BB
:108DD700837403F0028E609003FAE0FF24E4F582C7
:108DE700E43403F583E4F0EF25E024DAF582E43494
:108DF70003F583E4F0A3F004A807088002C333D87F
:108E0700FCF4FF9003EEE05FF09003FAE024E9F54D
:108E170082E43403F583E4F0803F9003FAE0FF2413
:108E2700F5F582E43403F583E4F004A8070880022B
:108E3700C333D8FCFF9003EEE04FF09003FAE0FF56
:108E4700129FF49003FAE024E9F582E43403F583F2
:108E5700EFF07F037E0012A6779003FAE00475F027
:068E67000584E5F0F02295
:09A81A00301104C211D322C32243
:06A833009003F4E0FF2297
:078B0B00C11242042E00001C
:03801B0002A19F20
:10A19F00C0E0C083C082C0D075D000C005C006C06B
:01A1AF0007A8
:10A1B000C28EAF8DEFFEAD8BED24FEFDE434D8CD25
:10A1C0002400FFED3E8F8BF58DD28E90042FE0049E
:0BA1D000F0700690042EE004F0D212A4
:0FA1DB00D007D006D005D0D0D082D083D0E032CC
:10A60C00C2AFE490042EF0A3F0C28E53890F43899D
:0EA61C0010758BFE758DD8D2ABD28ED2AF22C8
:10A5CE00EFC3940B501990042EE0FCA3E0FDEF2591
:10A5DE00E02418F582E43404F583ECF0A3EDF022C8
:10A2B70090042EE0FBA3E0900376CBF0A3EBF0EF46
:10A2C700C3940B5026EF25E02418F582E43404F5F7
:10A2D70083E0FEA3E02DFFEE3CFEC3900377E09FF3
:0CA2E700900376E09E4002D322C322C305
:01A2F3002248
:10A04E0090042EE0FBA3E0900372CBF0A3EBF0EFB5
:10A05E00C3940B5040EF25E02418F582E43404F548
:10A06E0083E0FAA3E02DFDEA3CFC900372E0FAA334
:10A07E00E0FBC39DEA9C4003D38001C392003000F5
:10A08E0011EF25E02418F582E43404F583EAF0A3F9
:06A09E00EBF0A20022C35A
:01A0A4002299
:09A8230090042EE0FEA3E0FF22E8
:108B120041031D0041031C0041031A0041031B00D5
:048B220041031900F2
:10A38F0090031CE0FFA3E075F014A42FF582E435D1
:10A39F00F0F583E58224C9F582E5833402F583E085
:10A3AF00F5F8D2ECC2EBD2EA000000C2EAD2EBC25F
:02A3BF00EC228E
:10A6E1008FF8C2ECC2EBD2EA000000C2EAD2EBC2A0
:02A6F100EC2259
:10A4D900D2EAE5F830E70A9002C87404F0C2EA80CB
:10A4E90014900319E09002C87003F080037401F01E
:0AA4F900C2EAE4F5F89002C8E0FFA3
:01A503002235
:10A62A007F509002C97420F0A3DFFC90031AE090D7
:0AA63A000319700304F0227402F00B
:01A6440022F3
:10A7150012A62AE4900319F090031DF090031CF093
:01A725002211
:10A0A500900372EBF0A3EAF0A3E9F0EFC394045038
:10A0B50045EF75F014A424C9F9740235F0FA7B0153
:10A0C500C002C001900372E0F9A3E0FAA3E0900397
:10A0D50078C9F0A3EAF0A3E9F0A3E4F0A37414F0BF
:10A0E500D001D002129F8C90031AE09003197003DF
:07A0F50004F0227402F022C6
:109D9D0090038DEFF090038FEBF0A3EAF0A3E9F0C1
:059DAD0090038EEDF0B3
:109DB200E4900392F0EDC39404506290038FE0FBB1
:109DC200A3E0FAA3E0F9A3E0FFFD3395E08D82F56D
:109DD2008312889CFE6037EF3395E0FC90038DE0A0
:109DE200FFA3E075F014A424C9F582E43402F583DC
:109DF200E5822FF582E43583F583E5822DF582E550
:109E0200833CF583EEF0900392E004F080AD900382
:0D9E12001AE0900319700304F0227402F0AE
:019E1F002220
:109D150090031BE090031AF014601C146039146062
:109D25004E14606B2404706F900319E090031B7050
:109D350002F0227401F02212A38F90031CE004F0BC
:109D4500E0FF7414D39F5040EF75F01484E5F0F0F4
:109D550090031B7403F0227F0212A6E190031B748B
:109D650004F0900319E0D39400402CE014F0229005
:109D7500031DE004F0E0FF7404D39F500BEF540380
:109D8500F090031B7402F02290031B7404F022125E
:089D9500A4D990031BEFF0229A
:1092070052656C61792031204F4E2020202000527A
:10921700656C61792031204F464620202000526539
:109227006C61792032204F4E202020200052656C3F
:1092370061792032204F46462020200052656C611C
:10924700792033204F4E202020200052656C617911
:109257002033204F46462020200052656C6179203C
:1092670034204F4E202020200052656C6179203435
:10927700204F46462020200052656C61792035201A
:109287004F4E202020200052656C61792035204FF9
:10929700464620202000416C6C2052656C61797332
:1092A700204F464600457869742020202020202042
:1092B70020202000456E67696E652064656C6179C2
:1092C70020200053746172742074696D652020201A
:1092D700200053746172742064656C6179202020CA
:1092E7000052657475726E2064656C617920200088
:1092F700446174652F54696D652020202020005338
:10930700686F772063757272656E742020004661FE
:1093170063746F72792052657365742000537461AA
:109327007475732020202020202020004170706C4D
:1093370069636174696F6E73202000536572766983
:1093470063652F54657374732000436F6E66696796
:109357007572652020202020004C65617665206DA0
:10936700656E75202020200020202020202020202E
:0D93770020202020202020202020007E002B
:108B2600C19360750201FF9207FFA777000000FF5F
:108B36009216FFA785000000FF9225FFA79300006D
:108B460000FF9234FFA7A1000000FF9243FFA7AFEA
:108B5600000000FF9252FFA7BD000000FF9261FFD8
:108B6600A7CB000000FF9270FFA7D9000000FF927C
:108B76007FFFA7E7000000FF928EFFA7F500000029
:108B8600FF929DFFA803000000FF92AC00000001C9
:108B960001CB00000000000000000060510276FFDB
:108BA60092BB000000000000FF92CA000000000017
:108BB60000FF92D9000000000000FF92E8000000CC
:108BC600000000FF92F7FFA737000000FF9306FFA3
:108BD600A726000000FF9315000000000000FF928A
:108BE600AC0000000101CB00000000000000000006
:108BF600603601CBFF9324000000000000FF933392
:108C0600000000000000FF9342000000010201FF87
:108C16009351000000010276FF9360FFA7680000F1
:108C2600000000000000000000004101C7054102ED
:088C3600C7004301C80101CB96
:0FA7680012A62AE4900453F09001C7F0D21322F6
:10A7260012A62A9004537404F0E49001C7F0D213E1
:01A736002200
:10A7370012A62A9004537403F0E49001C7F0D213D1
:01A7470022EF
:109B2D00900372EFF0D39400401EE075F009A4FF8E
:109B3D009001C8E0FBA3E0FAA3E02FF9EA35F0FAB3
:109B4D0090FFF712892980067BFF7A93796F7D024A
:109B5D007F02129D9D9001C8E0FBA3E0FAA3E0F9FE
:109B6D00900372E075F009A4F58285F083128929BE
:109B7D007D017F02129D9D7BFF7A9379827D01E4A9
:109B8D00FF129D9D900372E075F009A4FFAEF09059
:109B9D0001C8E0FBA3E0FAA3E02FF9EA3EFA90003A
:109BAD0009128929EA4960179001C8E0FBA3E0FA80
:109BBD00A3E02FF9EA3EFA90000912892980067B6D
:0D9BCD00FF7A93796F7D037F02129D9D2228
:10A15200E4900372F012A81A503D12A833EF24FEC5
:10A16200601F1460241460292483600D146012148B
:10A17200601714601C2483701E9003727404F080B4
:10A18200169003727401F0800E9003727402F080D4
:0CA19200069003727403F0900372E0FF6B
:01A19E00229E
:1095B60030130A9002C7E0FF129B2DC21312A1526C
:1095C6009001C7EFF014604424FE6051147003024A
:1095D60096B7240260030296B99002C7E004F090A1
:1095E60001C8E0FBA3E0FAA3E0F99002C7E0FF336D
:1095F60095E08F82F583740912890F128929E94A49
:109606004B70069002C7E014F0D213229002C7E016
:10961600D3648094804003E014F0D213229002C7F2
:10962600E0FF3395E0FE7C007D091288FD9001C8BD
:10963600E0FBA3E0FAA3E02FF9EA3EFA900003125A
:109646008929E94A4B60189001C8E0FBA3E0FAA318
:10965600E02FF9EA3EFA90000312892912895990FF
:1096660002C7E0FF3395E0FE7C007D091288FD907D
:1096760001C8E0FBA3E0FAA3E02FF9EA3EFA900066
:1096860006128929E94A4B602A9001C8E0FBA3E04B
:10969600FAA3E02FF9EA3EFA900006128929900112
:1096A600C8EBF0A3EAF0A3E9F0E49002C7F0D21306
:0496B60022D2132287
:088C3E004504430A031E073C34
:03800000029C7B64
:109C7B00787FE4F6D8FD9000007FFE7E7FE4F0A3B2
:0A9C8B00DFFCDEFA758122029CD096
:109C95000298A7E493A3F8E493A34003F68001F2A6
:109CA50008DFF48029E493A3F85407240CC8C333D0
:109CB500C4540F4420C8834004F456800146F6DF9F
:109CC500E4800B01020408102040809089EFE47EB7
:109CD500019360BCA3FF543F30E509541FFEE49394
:109CE500A360010ECF54C025E060A840B8E493A35B
:109CF500FAE493A3F8E493A3C8C582C8CAC583CA86
:109D0500F0A3C8C582C8CAC583CADFE9DEE780BE3D
:018C4600002D
:10878D00E709F608DFFA8046E709F208DFFA803ECE
:10879D0088828C83E709F0A3DFFA8032E309F608BB
:1087AD00DFFA8078E309F208DFFA807088828C8323
:1087BD00E309F0A3DFFA806489828A83E0A3F608D7
:1087CD00DFFA805889828A83E0A3F208DFFA804CB1
:1087DD0080D280FA80C680D4806980F28033801088
:1087ED0080A680EA809A80A880DA80E280CA8033F1
:1087FD0089828A83ECFAE493A3C8C582C8CCC58369
:10880D00CCF0A3C8C582C8CCC583CCDFE9DEE78038
:10881D000D89828A83E493A3F608DFF9ECFAA9F0B7
:10882D00EDFB2289828A83ECFAE0A3C8C582C8CC0D
:10883D00C583CCF0A3C8C582C8CCC583CCDFEADE26
:10884D00E880DB89828A83E493A3F208DFF980CC88
:10885D0088F0EF60010E4E60C388F0ED2402B40481
:10886D000050B9F582EB2402B4040050AF23234528
:06887D0082239087DD73E9
:10888300BB010689828A83E0225002E722BBFE02F3
:09889300E32289828A83E4932226
:10889C00BB010CE58229F582E5833AF583E0225091
:1088AC0006E92582F8E622BBFE06E92582F8E222DB
:0D88BC00E58229F582E5833AF583E49322F5
:1088C900BB010689828A83F0225002F722BBFE018E
:0288D900F32288
:1088DB00F8BB010DE58229F582E5833AF583E8F0D3
:1088EB00225006E92582C8F622BBFE05E92582C87F
:0288FB00F22267
:1088FD00EF8DF0A4A8F0CF8CF0A428CE8DF0A42E8F
:02890D00FE2248
:10890F00F5F0C582A4C582C5F0C583A42583F58380
:01891F002235
:09892000EBF0A3EAF0A3E9F02258
:10892900BB010DE58229F582E5833AF58302899435
:108939005007E92582F802898BBBFE07E92582F8F1
:108949000289B4E58229F582E5833AF5830289BD76
:068959008A838982E473A9
:10842800E5082490F582E43403F583E005082290FA
:10843800038D300703900390E475F00112899D02C3
:1084480088832000E97F2ED2008018EF540F2490F3
:10845800D43440D4FF30040BEF24BFB41A005003C7
:108468002461FFE50960021509050CE50C70020599
:108478000B30070E90038DE475F00112899DEF0211
:1084880088C902A6457403D2078003E4C207F50829
:1084980090038D128920E4F509F50BF50CE50960C8
:1084A800077F2012846B80F5750AFFC201C200C2E3
:1084B80002C203C205C206C208128437FF700D301B
:1084C80007057F0012847CAF0CAE0B22B4255FC277
:1084D800D5C204128437FF24D0B40A00501A75F0AC
:1084E8000A780930D50508B6FF0106C6A426F62085
:1084F800D5047002D20380D924CFB41A00EF5004F7
:10850800C2E5D20402867DD20180C6D20080C0D2E4
:108518000280BCD2D580BAD20580B47F2012846B89
:108528002002077401B5090040F1128428FF128463
:108538006B0284A5D208D2068095128428FB128487
:1085480028FA128428F94A4B7006794E7A877BFFFD
:1085580020022EE509602A7E008E8275830012882B
:108568009C60060EEE650A70F0C2D5EBC0E0EAC06A
:10857800E0E9C0E0EE1286C4D0E0F9D0E0FAD0E03D
:10858800FB128883FF60AAEBC0E0EAC0E0E9C0E024
:1085980012846BD0E02401F9D0E03400FAD0E0FB7B
:1085A800E50A0460DCD50AD980877BFF7A8679C022
:1085B800D202809C791080027908C206C20880081D
:1085C800D2D5790A8004790AC2D5E50A047002F581
:1085D8000AE4FAFDFEFF128428FC7B08200113122E
:1085E8008428FD7B1030000A128428FE128428FF9C
:1085F8007B20EC3382D592D55013C3E43000069F1C
:10860800FFE49EFEE42001039DFDE49CFCE4CBF81E
:10861800C201EC700CCFCECDCCE824F8F870F38012
:1086280017C3EF33FFEE33FEED33FDEC33FCEB33D2
:10863800FB994002FB0FD8E9EB300105F8D0E0C404
:1086480048B201C0E00AEC4D4E4F78207B0070C262
:10865800EAB50A0040BCC0E01286C6D0F0D0E020DF
:108668000104C4C0E0C4B201C0F0128454D0F0D5F3
:10867800F0EB0284A51289C985425385BC5885133D
:108688004C850F4285C04F85C84485C84985284315
:0886980085CE5585B24685B27E
:1086A0004585B247876E5085172D851B2E853E2B3D
:1086B000851F23853C2087572A84D74800008536AC
:1086C0003F3F3F00790AA2D5200314300509B910B5
:1086D000020404B9080104A2D520060250010420B6
:1086E00002689202B509005034C0E07F20300319BF
:1086F0007F30A20272067205500F12871DC202C29D
:1087000006C205C2087F30800F300503E9C0E012C1
:10871000846B300503D0E0F9D0E0B509CC30051703
:108720007F30B9100C12846B7F583004077F78803B
:1087300003B9080312846B3002057F2D02846B7F1E
:10874000202008F87F2B2006F322920280CF286E8B
:10875000756C6C2900D2011284283001F8C20178AE
:108760000930D50108F60284D72D504349581284A8
:10877000282403B405004001E49087699312845CC7
:0D878000743A12845CD2037509040285BCB2
:10A55800128883601CFF09E970010AC0E0EAC0E0C4
:10A56800EBC0E012A645D0E0FBD0E0FAD0E0F980DD
:0AA57800DF7F0A12A645E4FEFF2271
:109F8C00900375EBF0A3EAF0A3E9F0E490037DF005
:109F9C00A3F090037B74FFF5F012897545F0603CDB
:109FAC00900378E0FBA3E0FAA3E0F9128883FF901A
:109FBC000375E0FBA3E0FAA3E0F990037DE475F0F0
:109FCC000112897585F082F583EF1288DBEF60C290
:109FDC00900379E475F00112895F80B6900375E007
:089FEC00FBA3E0FAA3E0F92257
:10A6B800E4FFFE128883600C0FEF70010E09E97049
:05A6C800F20A80EF2200
:10895F00C5F0F8A3E028F0C5F0F8E58215827002A3
:06896F001583E038F02240
:10897500A3F8E0C5F025F0F0E582158270021583B5
:06898500E0C838F0E82212
:09898B00E6FB08E6FA08E6F92211
:09899400E0FBA3E0FAA3E0F922E4
:10899D00F8E0FBA3A3E0F925F0F0E5821582700263
:0789AD001583E0FA38F02207
:0989B400E2FB08E2FA08E2F922F4
:0C89BD00E493FB740193FA740293F92216
:1089C900D083D082F8E4937012740193700DA3A33D
:1089D90093F8740193F5828883E473740293686051
:0689E900EFA3A3A380DF51
:00000001FF
