:0A09420042044A0000420448177006
:1023B90090044AEEF0A3EFF07F091223E7C2EE7F03
:0723C9000A1223E7D2EF2204
:1021C20090044AE0FCA3E0FD7F0912213C5009D2B1
:1021D200EEE490044AF0A3F0900448E0FCA3E0FD92
:0A21E2007F0A12213C5002C2EF22D6
:10238900E004F0E075F0C884E5F0F022E004F0E044
:0823990075F0FA84E5F0F02272
:1020490075985A438780D2DFD2997FC89000FFE400
:10205900F0A3DFFCE4900002F0A3F07FFA90000502
:10206900E4F0A3DFFCE4900000F0A3F0900004F09A
:012079002244
:1021EC00900002E0FF0475F0C884A3E065F060186D
:1021FC001207D6FE74FF2FF582E43400F583EEF05F
:0A220C00900002122389C322D3229E
:101AB9001207D6B40A08900000E0900004F09000E4
:101AC90000E0FF0475F0FA84AEF0A3E0FD6E703615
:101AD900EDC39F5011900004E0FF9D400990000064
:101AE900E0FDEF9D4018900000E0FFA3E0FDD39FCB
:101AF900400C900004E0FC9D5004EC9F50089000BD
:101B090004E0900001F0900001E06E601B1207D61E
:101B1900FF900000E02405F582E43400F583EFF03E
:0A1B2900900000122395C322D3227E
:1022D800900003E0FE900002E06E601474FF2EF59B
:1022E80082E43400F583E0FF900003122389800222
:0222F800E4FF01
:0122FA0022C1
:1022FB00900001E0FE900000E06E601474052EF576
:10230B0082E43400F583E0FF9000011223958002F4
:02231B00E4FFDD
:01231D00229D
:1024A400900003E0FF900002E0B50703D38001C36E
:0124B4002205
:1024B500900001E0FF900000E0B50703D38001C361
:0124C50022F4
:102357009003B5EFF07B017A0379B51221EC5006B3
:092367009003B5E0FF227F002283
:0F24E80030990C1224A440071222D8C2998F9960
:0124F70022C2
:10242C00309811900451E599F0C2987B017A0479A7
:04243C0051121AB966
:012440002279
:0A259C001225E0C2E81225E0EF224C
:0325E000000022D6
:10226A00D2E820E81F90038AE004F0700690038900
:10227A00E004F0900389E07002A3E070E590045254
:04228A00E05402F02A
:01228E00222D
:0F250800D2E81225E0C2E912259C2DFF02207AAD
:10207A00E4FEEF30E704D2E98002C2E912226A12D2
:10208A00259C25E0FF0EEEB408E8D2E912226A1276
:10209A0025E030E907900452E05401F0C2E8022535
:0120AA00E055
:1020DC00E4FEFD12226A1225E0EE25E0FE30E90155
:1020EC000EC2E81225E00DEDB408E8EF24FF92E9EA
:0F20FC0012226A1225E0C2E8D2E91225E0AF06EF
:01210B0022B1
:1024F800C2E91225E012226A1225E0D2E90225E09B
:0B252300493243204552524F52210024
:101CDC00FF5430C4540F75F00AA4FEEF540F2EFFBE
:101CEC00E0FBA3E0FAA3E0F9EF02081CE0FF75F0BB
:101CFC000A84C454F0FEEF75F00A84E5F0540F2208
:101D0C00E0FFC4540F75F00AA4FEEF540F2EFF220F
:101D1C0075F00A84C454F0227BFF7A2579237D0365
:031D2C007F022211
:0B151300900372EBF0A3EAF0A3E9F0F4
:10151E00E4FD7FA01225087F0212207A7D017FA0B4
:10152E00122508E4FF1220DC9003841215C19003EB
:10153E00851215C1900386EFF0E4FF1220DC9003B4
:10154E0087EFF07F011220DC900388EFF01224F871
:10155E00900452E06006121D24121B339003841275
:10156E001D0C900381121CEC900385121D0C900330
:10157E007E121CEC900386E090037B121CDC900321
:10158E0087E0900378121CDC900388E0FF54301241
:10159E001D0E900375121CEC900387E054C0C4130B
:1015AE00135403FF900372E0FBA3E0FAA3E0F9EFFC
:0315BE0002081C04
:0815C100EFF0E4FF1220DC2230
:0215C900AA076F
:1015CB0090037BE0FE121D1CFCEE121D034CA3F0DE
:1015DB0090037A121CF84E90037DF0900379121C45
:1015EB00F84E547F90037EF0EB121D1CFFEA540360
:1015FB00FEC4333354C04FFFEB121D034FA3F0ED6A
:10160B00121D1CFFED121D034F541FA3F0E4FD7FB1
:10161B00A0122508E4FF12207A7F801216707F0239
:10162B0012207A90037CE0FF12207A90037DE0FF7A
:10163B0012207A90037EE0FF12207A90037FE0FF66
:10164B0012207A900380E0FF121670E4FF12207ACA
:10165B00E4FF12207A1224F8900452E06006121D67
:04166B0024121B33F7
:0F166F002212207A1224F8E4FD7FA0122508220F
:100B9A00504F5745522066726F6D205550532100B1
:100BAA004177616974696E672073746172747570D4
:100BBA002E2E2E002D20504F5745522046524F4D73
:100BCA0020555053002A20504F5745525F555053D5
:100BDA0000504F5745522066726F6D204C696E6502
:100BEA00002020202020202020202020202020201B
:100BFA0020202020002D20504F5745522046524F8A
:100C0A004D204C494E45002A20504F5745525F4EC1
:100C1A004F524D414C005374617274696E6720657E
:100C2A006E67696E652E2E2E002A20454E47494E64
:100C3A00455F535441525400504F574552206672F3
:100C4A006F6D204C696E652020202000456E676913
:100C5A006E6520737461727465642E2E2E202000D6
:100C6A002A20454E47494E455F57414954494E4708
:100C7A0000506F776572206261636B212020002A21
:100C8A0020454E47494E455F53544F5000456E67C5
:100C9A00696E6520506F77657220436865636B21C2
:100CAA00002020202020202020202020202020205A
:100CBA00202020002A20454E47494E455F4348459B
:100CCA00434B0052657374617274696E6720656E76
:100CDA0067696E652E2E2E002D20454E47494E45DA
:100CEA002050524F424C454D00506F776572206636
:100CFA00726F6D20656E67696E65002D20454E47DF
:100D0A00494E4520504F5745524544002A20504FDE
:100D1A005745525F454E47494E4500506F776572B9
:100D2A00206261636B206F6E206C696E6520002AF9
:100D3A0020504F5745525F52455455524E45440034
:100D4A00506F77657220646F776E20616761696E94
:100D5A00212020004C696E6520706F7765722072C1
:100D6A00657475726E6564002A20504F5745525F4C
:100D7A005357495443484544004177616974696E41
:100D8A00672073746F7020656E672E2000456E674A
:100D9A00696E652073746F7070656420202020204E
:010DAA000048
:0C094C0041044C0041044D0041044E00E9
:10244100F090FFFFF0F02290044EF07BFF22900409
:052451004EF07BFF22AC
:0B252E0090044CE04401122441002204
:0B25390090044CE054FE1224410022EC
:0B25440090044CE044021224410022ED
:0B254F0090044CE054FD1224410022D7
:0B255A0090044CE044041224410022D5
:0B25650090044CE054FB1224410022C3
:0B25700090044CE044081224410022BB
:0B257B0090044CE054F71224410022B1
:0B25860090044CE0441012244100229D
:0B25910090044CE054EF1224410022A3
:0925A600E490044C1224410022CF
:1000030090044DE0B40A004003020254900016F835
:1000130028287302003402006D0200910202540288
:1000230000D902011402017C0201A50201F40202BB
:1000330035D293A293B3502C7A0B799A1202C97AD0
:100043000B79AA1202AA7BFF7A0B79BE1222401205
:1000530003547F081223E790044E7401F07A0B795E
:10006300CF12031112257B020254D293A293B34001
:10007300087BFF7A0B79DB80229004431202E8406D
:10008300030202547A0C79201202AA020146D29387
:10009300A293B3401D7BFF7A0C79427D017F01124D
:1000A3001B337A0B79EB1202F61203671203330246
:1000B300022F12252E1225449004441202E8400315
:1000C3000202547A0C79561202F674041224487A06
:1000D3000C796A0201ECD293A293B3400912025D38
:1000E3001202B412034890044512031B50207A0CE9
:1000F30079971202C97A0C79AB12030090044E74FB
:1001030005F07A0C79BE1203117F081223E702026D
:1001130051D293A293B3400912025D1202B41203A7
:1001230048D291A291B3502B90044612031B400373
:100133000202547A0C79CD1203717BFF7A0C79E2B7
:1001430012224012035474021224487A0C7933FDAC
:100153000201EE7A0C79F31203297F077E00122342
:10016300B97BFF7A0D7905122240740612244F7A67
:100173000D79167D02E402022FD293A293B3401CA1
:100183007A0D79251202937F017E001223B9740739
:1001930012244F7A0D79397D0212035C1225700205
:1001A3000254D293A293B350111202781202D37A5B
:1001B3000D79167D02E4FF121B33900447E075F0BE
:1001C30064A4FDACF07F0812213C40030202547A80
:1001D3000D795E1202937F017E001223B990044EC3
:1001E3007408F07BFF7A0D79727D0212035C0202C0
:1001F30054D293A293B3500C1202781202D37A0D05
:100203007916802512257B7A0C79421203297A0DFF
:1002130079831203001203677F081223E790044EC9
:100223007409F07BFF7A0C79897D02E4FF121B339A
:10023300801F7D2C7C017F0812213C50147A0D799C
:1002430097120371120333FF121B33122539122540
:100253004F90044EE090044DF0227BFF7A0C797BA3
:100263007D017F01121B337BFF7A0B79EB7D037FCB
:1002730001121B33227BFF7A0D794A7D017F011224
:100283001B337BFF7A0B79EB7D037F01121B332238
:100293007BFF7D017F01121B337BFF7A0B79EB7DA3
:1002A300037F01121B33227BFF7D037F01121B336C
:1002B300227F017E001223B97F081223E790044EA8
:1002C3007409F07BFF227BFF7D017F01121B332228
:1002D3007F077E001223B97F081223E790044E7430
:1002E30006F07BFF22E075F064A4FDACF07F0812FA
:1002F300213C227BFF7D037F01121B33227BFF7D89
:10030300037F01121B337F017E001223B9227BFF7F
:100313007D02E4FF121B3322E075F064A4FDACF010
:100323007F0812213C227BFF7D017F01121B3322B8
:100333007F017E001223B9E490044EF07BFF7A0C18
:1003430079117D02227A0C79897D02E4FF121B3335
:10035300227F077E001223B922E4FF121B337F089A
:100363001223E7227BFF7A0B79FF122240227BFFC5
:080373007D037F01121B332200
:101C8600456E67696E652064656C61793A2000531C
:101C9600746172742074696D653A20202000537453
:101CA6006172742064656C61793A20200052657314
:101CB600746172742064656C61793A00526574755A
:101CC600726E2064656C61793A2000257325336253
:061CD6007500000201038D
:10095800C19041043000520431FF1C86FF1C95FFF2
:0B0968001CA4FF1CB3FF1CC200000019
:101333001225AF50461225DAEF24FE601A146029F5
:10134300248260072480600302142212241590046F
:10135300537401F0D21022900430E0D3940040067D
:10136300900430E014F0D21022900430E0C39402D1
:101373005006900430E004F0D2102220100302142F
:011383002247
:1013840078877C037D017BFF7A1C79D87E007F04FB
:101394001207B0E490038CF090038CE0FFD3940226
:1013A400507A900430E0FE7C007B012443F9EC3455
:1013B40004FAEF29F9EC3AFA1207D6FD90038BF000
:1013C40090039074FFF0A3741CF0A374D1F0EE2F7B
:1013D40075F003A42431F582E43404F583E0F9A321
:1013E400E0FAA3E0900393C9F0A3EAF0A3E9F0A321
:1013F400EDF07A0379721203E090038CE02488F50F
:1014040082E43403F583E0FD7B017A037972E4FF1F
:0E141400121B3390038CE004F002139CC210F4
:0114220022A7
:10097300C10D410416004104170041041400410451
:10098300150041041200410413004203FB0000540C
:1009930003FD20202059592F4D4D2F444420484812
:0C09A3003A4D4D3A535341041100C18CF1
:10228F00FF75F00A84243012082EEF75F00A84E5EA
:10229F00F0243022E0FF75F00A84243022A3F0A34B
:0522AF007401F0A32200
:10191500900413E01222A512081C900413E0122271
:101925009A90000112082E900002742F12082E9032
:101935000412E090000312228F90000412082E90EA
:101945000005742F12082E900415E090000612224F
:101955008F90000712082E900008742012082E9010
:1019650004161222A390000912229690000A12086A
:101975002E90000B743A12082E9004171222A39091
:10198500000C12229690000D12082E90000E743A4B
:1019950012082E9004141222A390000F1222969082
:0519A500001002082EF5
:10210C00301212C2129003FCE004F0700A9003FB30
:10211C00E004F08002C322C39003FCE094649003BB
:0F212C00FBE0648094804006E4F0A3F0D322C36C
:01213B002281
:1017D4007D647C007F04121EE840030218749004A8
:1017E40014E004F0E0FF743BC39F5011900417E031
:1017F40004F0EF75F03C84900414E5F0F0900417C5
:10180400E0FF743BC39F500F900416E004F0EF75A3
:10181400F03C84A3E5F0F0900416E0FF7417C39F36
:10182400500F900415E004F0EF75F01884A3E5F070
:10183400F0900415E0FF741EC39F5011900412E051
:1018440004F0EF75F01F84900415E5F0F090041295
:10185400E0FF740CC39F5018A3E0FE04F0EE75F093
:101864006384E5F0F0EF75F00C84900412E5F0F079
:011874002251
:101FDE009003757401F0A37404F074121222AC74A1
:101FEE0004F074151222AC7404F0A374161222AD10
:101FFE007404F0A374171222AD7404F0A37414F0D9
:09200E007B017A04791302151319
:101BAD00300C0FC20C121FDE7F031223E77F0412CD
:101BBD0023E712210C50031217D4300D417D0A7CFE
:101BCD00007F0312213C5048900411E0FF741E9FCA
:101BDD004023EF75F00A84E5F070127B017A0479E9
:101BED00001219157A0379FDE4FF121DC790041137
:101BFD00E004F08016E4900411F0C20D800D7D8498
:101C0D007C037F0312213C5007D20D7F031223E783
:011C1D0022A4
:10237000310020003200330063203D2025303362DD
:0923800075203A2025632020009D
:0809AF0041044F004104500017
:0725D3009003EEE07BFF2204
:10167E001225D330E0067A23797080047A237972AA
:10168E007D017F01121B331225D330E1067A2379B7
:10169E007480047A2379727D017F03121B33122525
:1016AE00D330E2067A23797680047A2379727D012B
:1016BE007F05121B339003EEE0FF30E302800F90A4
:1016CE000450E030E30C90044FE0041216FE900438
:1016DE0050F09003EEE0FF30E402800F900450E0F3
:0F16EE0030E40C90044FE0141216FE900450F0FC
:1016FD0022F07BFF7A23797890039012087390047F
:10170D004FE0900393F0A3F07B017A0379721203FB
:10171D00E07B017A0379727D017F07121B33E4228E
:1009B7006037033A2D2D205B2050726163612064FC
:1009C70079706C6F6D6F7761204D696368616C201A
:1009D700466974612C2057535A69422032303035AA
:1009E7002F32303036205D202D2D0042031E0000AF
:10122D0090031EE07002A3E0701E7B017A03793AF1
:10123D0012245690031EEEF0A3EFF0A374FFF0A35B
:10124D0074ECF0E4A3F0A3F07D0C7C007F0212217E
:10125D003C400302133290031EE0FEA3E0FFC39057
:10126D000321E09FEE6480F8900320E064809850A5
:10127D000EA3E004F07012900320E004F0800A90B9
:10128D00032074FFF0A374ECF0E4900324F0A3F0BA
:10129D00900324E0FEA3E0FFC39414EE64809480D9
:1012AD00506C900321E02FFF900320E03EFEC364BD
:1012BD0080948050067D207F20803490031FE02491
:1012CD00FFFD90031EE034FFFCD3EF9DEC6480F82E
:1012DD00EE64809840047F208015900325E0FF90F8
:1012ED000321E02F243AF582E43403F583E0FF90E7
:1012FD000325E02426F582E43403F583EFF0900313
:10130D0025E004F0708A900324E004F080827B01D4
:10131D007A037926E4FF121DC7E4900322F0A3F0AF
:05132D007F021223E71E
:011332002298
:1023A1001225AF50121225DAEF247F24FC5002804F
:0823B100069004537401F022B0
:102216005F0025303262752F25303262752F2530EA
:102226003262752025303262753A25303262753A4F
:0A223600253032627500000201033A
:1009F700C1894103CB004103CD004103CC0046032D
:100A0700CE020202020202C18AC10B4603D4630C62
:040A17001F173B3B2F
:1023D00024CEF582E43403F58322F582E43403F558
:0723E00083E09003CDF02221
:1020AB00900416E09003D1F0900417E09003D2F067
:1020BB00900414E09003D3F0900415E09003D0F05B
:1020CB00900412E09003CFF0900413E09003CEF055
:0120DB0022E2
:101E5A009003D1E0900416F0FE9003D2E0F99004CA
:101E6A0017F09003D3E0900414F09003D0E09004AC
:101E7A0015F0FB9003CFE0900412F0FD9003CEE042
:101E8A00FF900413F0900379EEF0A3E9F0900414A4
:081E9A00E090037BF00215C982
:1010CF00300A211220ABE49003CBF0E0FF24D412BE
:1010DF0023DA74CE2F1223D2E09003CCF0C20A7F12
:1010EF00071223E71225AF400302117D1225DAEF15
:1010FF0024FE60231460361460452483600B24FDA6
:10110F00603D2483600302121E1224159004537451
:10111F0001F0D209D20A229003CDE0FF9003CCE078
:10112F00C39F50069003CCE004F0D209229003CC69
:10113F00E0D3940040069003CCE014F0D209229043
:10114F0003CBE0C394055015E004F0E0FF1223D069
:10115F00E09003CCF074D42F1223DA800E121E5AB3
:10116F00122415D20A9004537401F0D209227D3C47
:10117F007C007F0712213C5026300B199003CBE0E7
:10118F0075F003A404FF7BFF7A2279167D01121BF1
:10119F0033C20B800512121FD20B7F071223E730C9
:0211AF00096DC8
:1011B10078727C037D017BFF7A22793C7E007F047B
:1011C1001207B09003CCE0FF9003CBE01223D0EFE5
:1011D100F090039074FFF0A37422F0A37418F090C0
:1011E10003CEE0900393F09003CFE0900394F0904E
:1011F10003D0E0900395F09003D1E0900396F09036
:1012010003D2E0900397F09003D3E0900398F07B32
:0D121100017A0379B61203E012121FC20920
:0F121E00227B017A0379B67D01E4FF121B332294
:101F66002D20555053204641494C205245504F5242
:101F760054002D20555053204F4B205245504F5260
:101F860054002320443120460023204431205400AD
:0E1F96002320443020460023204430205400F5
:080A1B00C10EC10F410453009C
:10247F00EF75F00AA4FF0EEE2275F83FD2EBC2EC17
:03248F00D2EA226C
:101E1100E4FF122488C2EBFE12247FB4FAFAC2EA6C
:101E2100E4FE12247FB4FAFA122488C2EBE4FFFE26
:101E310012247FB4FAFAC2EAE4FE12247FB4FAFA59
:101E4100122488C2EBE4FFFE12247FB4FAFAC2EA3C
:081E5100E4FE12247FB4FAFA4A
:011E59002266
:1022B400E4900372F08FF8C2ECC2EBD2EAFF000F95
:1022C400EFB402FAC2EA12248BE5F820E7FBC2EA73
:0322D400E4F5F836
:0122D70022E4
:10233C008FF8D2ECC2EBD2EA000000C2EA12248B76
:0B234C00E5F820E7FBC2EAE4F5F82208
:10246B00E4FF1223E77D117C00E4FF12213C4003C3
:04247B000080F222C9
:101423001225A6122049D2AFD2B9C2BDC2BCC2BBDB
:10143300C2BA12231E121E117F381222B47F0C125D
:1014430022B47F061222B47F011222B47F02122239
:10145300B412246B1224C6200D0312122D121BADDD
:101463007D017C007F05121EE8502B900453E0148D
:10147300602114600F14601614600E240470171298
:1014830023A1801212167E800D12133380081210CE
:10149300CF800312172D120003120DAB1219AA12DB
:1014A30021C27DC87C007F0612213C50AAD2937BC7
:1014B300FF3093067A1F796680047A1F79781222A7
:1014C30040D291A291B37BFF50067A1F79888004A2
:1014D3007A1F798F7D02E4FF121B33D290A290B35F
:1014E3007BFF50067A1F799680047A1F799D7D02CF
:1014F3007F09121B337F061223E71224B550030220
:02150300145A78
:0B1505001222FB900371EFF01223573D
:0315100002145A68
:100A23004503E900000000004503EF00000000005B
:100A33004103FA004503F500000000004503E4000C
:100A4300000000004A03DA0000000000000000007C
:0B0A5300004103EE004103F4FFC1115D
:101EA200E024E9F582E43403F58322900372E0250D
:101EB200E024DAF582E43403F583229003FAE02485
:101EC200EFF582E4340322E0FF24E4F582E43403F4
:101ED200F58322E0FF24F5F582E43403F5832290B2
:061EE20003FAE024E922EE
:10216A00C200C2ED75F8FFEF2403FF74017E00A8D8
:10217A0007088005C333CE33CED8F9FFADF8EF5D3B
:0C218A007003D38001C39200D2EDA200CC
:012196002226
:101FA400900372EFF0121EB1E0FEA3E04E700E1229
:101FB40025B8121EADEEF0A3EFF07F01221225B872
:101FC400121EADE0FCA3E0245AFDE43CFCD3ED9FDB
:0A1FD400EC9E50037F02227F0122E1
:100DAB009003FAE0FF121EA3E0B407004003020F0A
:100DBB0026900DC3F8282873020DD8020DEC020EF5
:100DCB001E020E57020E8D020ED1020F0112216A66
:100DDB0050099003FA121EA27404F0121EBD020EEB
:100DEB00FB120F494008121EA27403F08005120F6C
:100DFB0033EFF0121EBDF583E06003020F26D21114
:100E0B009003FAE09003F4F0121EC1F5837401F025
:100E1B00020F26120F494006121EA27403F0121E77
:100E2B00BDF583E0FF64016006EF6003020F26D27D
:100E3B00119003FAE0FE44809003F4F074EF2EF56A
:100E4B0082E43403F5837402F0020F269003FAE078
:100E5B00FF12216A4027121EC9E0FE740AD39E407E
:100E6B00109003FAE0FE121ECBE004F074E92E8022
:100E7B004C74E92F121EA57405F0020F26121EE109
:100E8B0080239003FAE0FF12216A502E121ED5E048
:100E9B00FE7406D39E40179003FAE0FE121ED7E0B5
:100EAB0004F074E92E121EA57404F0020F2674E9E7
:100EBB002F121EA57406F0020F26121EE1121EA59C
:100ECB007403F0020F269003FA121EC9E4F0EF121E
:100EDB001EB1E4F0A3F004A807088002C333D8FCCA
:100EEB00F4FF9003EEE05FF0121EE1F582E43403B1
:100EFB00F583E4F080259003FA121ED5E4F004A8E4
:100F0B0007088002C333D8FCFF9003EEE04FF012CA
:100F1B000F33EFF07F037E001223B99003FAE00446
:100F2B0075F00584E5F0F0229003FAE0FF121FA4A0
:100F3B009003FAE024E9F582E43403F5832290036D
:070F4B00FAE0FF12216A2207
:0925AF00301104C211D322C32231
:0625DA009003F4E0FF2273
:070A5E00C11242042E00004A
:1023FE00EF25E02418F582E43404F58322CBF0A314
:07240E00EBF0EFC3940B2279
:101D7C00C0E0C083C082C0D075D000C005C006C012
:011D8C00074F
:101D8D00C28EAF8DEFFEAD8BED24FEFDE434D8CDCC
:101D9D002400FFED3E8F8BF58DD28E90042FE00445
:0B1DAD00F0700690042EE004F0D2124B
:0F1DB800D007D006D005D0D0D082D083D0E03273
:10231E00C2AFE490042EF0A3F0C28E53890F43890E
:0E232E0010758BFE758DD8D2ABD28ED2AF2239
:1023E700EFC3940B501090042EE0FCA3E0FD1223E2
:0723F700FEECF0A3EDF02263
:10213C0090042EE0FBA3E090037612240B501D12AA
:10214C0023FEE0FEA3E02DFFEE3CFEC3900377E000
:0D215C009F900376E09E4002D322C322C371
:012169002253
:101EE80090042EE0FBA3E090037212240B502E12F4
:101EF80023FEE0FAA3E02DFDEA3CFC900372E0FA31
:101F0800A3E0FBC39DEA9C4003D38001C392003049
:0E1F180000081223FEEAF0A3EBF0A20022C3A1
:011F26002298
:0925B80090042EE0FEA3E0FF22D6
:100A650041031D0041031C0041031A0041031B0003
:040A75004103190020
:1024D700EBF0A3EAF0A3E9F02290031AE0900319C6
:0124E70022D2
:1020170090031CE0FFA3E075F014A42FF582E435CC
:10202700F0F583E58224C9F582E5833402F583E080
:10203700F5F8D2ECC2EBD2EA000000C2EAD2EBC25A
:02204700EC2289
:102492008FF8C2ECC2EBD2EA000000C2EAD2EBC271
:0224A200EC222A
:10219700D2EAE5F830E70A9002C87404F0C2EA8090
:1021A70014900319E09002C87003F080037401F0E3
:0A21B700C2EAE4F5F89002C8E0FF68
:0121C10022FB
:102415007F509002C97420F0A3DFFC1224E0700302
:0624250004F0227402F035
:01242B00228E
:1024C600122415E4900319F090031DF090031CF0FC
:0124D60022E3
:101DC7009003721224D7EFC39404503DEF75F014BB
:101DD700A424C9F9740235F0FA7B01C002C001904E
:101DE7000372E0F9A3E0FAA3E0900378C91224D8BC
:101DF700A3E4F0A37414F0D001D002121C1E122425
:0A1E0700E0700304F0227402F022E0
:101B330090038DEFF090038F1224D790038EEDF076
:101B4300E4900392F0EDC39404505E90038FE0FBA6
:101B5300A3E0FAA3E0F9A3E0FFFD3395E08D82F55E
:101B6300831207EFFE6037EF3395E0FC90038DE0BF
:101B7300FFA3E075F014A424C9F582E43402F583CD
:101B8300E5822FF582E43583F583E5822DF582E541
:101B9300833CF583EEF0900392E004F080AD1224D1
:091BA300E0700304F0227402F06A
:011BAC002216
:1019AA0090031BE090031AF014601C146039146051
:1019BA004E14606B2404706F900319E090031B703F
:1019CA0002F0227401F02212201790031CE004F0A6
:1019DA00E0FF7414D39F5040EF75F01484E5F0F0E3
:1019EA0090031B7403F0227F0212249290031B744B
:1019FA0004F0900319E0D39400402CE014F02290F4
:101A0A00031DE004F0E0FF7404D39F500BEF54036E
:101A1A00F090031B7402F02290031B7404F022124C
:081A2A00219790031BEFF0224D
:100F520052656C61792031204F4E202020200052B2
:100F6200656C61792031204F464620202000526571
:100F72006C61792032204F4E202020200052656C77
:100F820061792032204F46462020200052656C6154
:100F9200792033204F4E202020200052656C617949
:100FA2002033204F46462020200052656C61792074
:100FB20034204F4E202020200052656C617920346D
:100FC200204F46462020200052656C617920352052
:100FD2004F4E202020200052656C61792035204F31
:100FE200464620202000416C6C2052656C6179736A
:100FF200204F46460045786974202020202020207A
:1010020020202000456E67696E652064656C6179F9
:1010120020200053746172742074696D6520202051
:10102200200053746172742064656C617920202001
:101032000052657475726E2064656C6179202000BF
:10104200446174652F54696D65202020202000536F
:10105200686F772063757272656E74202000466136
:1010620063746F72792052657365742000537461E2
:101072007475732020202020202020004170706C85
:1010820069636174696F6E732020005365727669BB
:1010920063652F54657374732000436F6E666967CE
:1010A2007572652020202020004C65617665206DD8
:1010B200656E752020202000202020202020202066
:0D10C20020202020202020202020007E0063
:100A7900C19360750201FF0F52FF252E000000FF90
:100A89000F61FF2539000000FF0F70FF25440000AA
:100A990000FF0F7FFF254F000000FF0F8EFF255A33
:100AA900000000FF0F9DFF2565000000FF0FACFF50
:100AB9002570000000FF0FBBFF257B000000FF0F22
:100AC900CAFF2586000000FF0FD9FF25910000000D
:100AD900FF0FE8FF25A6000000FF0FF70000000147
:100AE90001CB00000000000000000060510276FF09
:100AF9001006000000000000FF10150000000000B3
:100B090000FF1024000000000000FF103300000067
:100B1900000000FF1042FF25CA000000FF1051FF2E
:100B290025C1000000FF1060000000000000FF0F59
:100B3900F70000000101CB000000000000000000E8
:100B4900603601CBFF106F000000000000FF107E2F
:100B5900000000000000FF108D000000010201FFED
:100B6900109C000000010276FF10ABFF2517000062
:100B7900000000000000000000004101C70541021B
:080B8900C7004301C80101CBC4
:101F27009002C7E0FF3395E0FE7C007D0912085060
:101F37009001C8E0FBA3E0FAA3E02FF9EA2290049E
:101F470053F0E49001C7F0D213229001C8E0FBA33D
:0F1F5700E0FAA3E0F9223EFA12087CE94A4B2295
:0C251700122415E4900453F0121F4A2215
:0925C1001224157404121F4522B6
:0925CA001224157403121F4522AE
:101A3200900372EFF0D394004014E075F009A4FF14
:101A4200121F3735F0FA90FFF712087C80067BFFF1
:101A52007A1079BA7D027F02121B33121F51900352
:101A620072E075F009A4F58285F08312087C7D018D
:101A72007F02121B337BFF7A1079CD7D01E4FF12C6
:101A82001B33900372E075F009A4FFAEF0121F370A
:101A92003EFA90000912087CEA49600D121F373E97
:101AA200FA90000912087C80067BFF7A1079BA7DD1
:071AB200037F02121B332227
:101D2F00E4900372F01225AF503D1225DAEF24FE36
:101D3F00601F1460241460292483600D1460121432
:101D4F00601714601C2483701E9003727404F0805B
:101D5F00169003727401F0800E9003727402F0807B
:0C1D6F00069003727403F0900372E0FF12
:011D7B002245
:10172D0030130A9002C7E0FF121A32C213121D2F96
:10173D009001C7EFF014603924FE60461470030267
:10174D0017D1240260030217D39002C7E004F012F0
:10175D001F519002C7E0FF3395E08F82F583740926
:10176D00120862121F5F70069002C7E014F0D213C8
:10177D00229002C7E0D3648094804003E014F0D23D
:10178D001322121F27900003121F5D600E121F37C8
:10179D003EFA90000312087C1208AC121F2790002D
:1017AD0006121F5D6020121F373EFA9000061208C8
:1017BD007C9001C8EBF0A3EAF0A3E9F0E49002C736
:0717CD00F0D21322D2132217
:080B91004504430A031E073C62
:030000000218756E
:1018750078FFE4F6D8FD9000007FFF7E78E4F0A3C2
:10188500DFFCDEFA750DF8750E007581220218D0A1
:10189500021423E493A3F8E493A34003F68001F232
:1018A50008DFF48029E493A3F85407240CC8C33354
:1018B500C4540F4420C8834004F456800146F6DF23
:1018C500E4800B0102040810204080900942E47E68
:1018D500019360BCA3FF543F30E509541FFEE49318
:1018E500A360010ECF54C025E060A840B8E493A3DF
:1018F500FAE493A3F8E493A3C8C582C8CAC583CA0A
:10190500F0A3C8C582C8CAC583CADFE9DEE780BEC1
:010B9900005B
:1006E000E709F608DFFA8046E709F208DFFA803EFC
:1006F00088828C83E709F0A3DFFA8032E309F608E9
:10070000DFFA8078E309F208DFFA807088828C8350
:10071000E309F0A3DFFA806489828A83E0A3F60804
:10072000DFFA805889828A83E0A3F208DFFA804CDE
:1007300080D280FA80C680D4806980F280338010B5
:1007400080A680EA809A80A880DA80E280CA80331E
:1007500089828A83ECFAE493A3C8C582C8CCC58396
:10076000CCF0A3C8C582C8CCC583CCDFE9DEE78066
:100770000D89828A83E493A3F608DFF9ECFAA9F0E5
:10078000EDFB2289828A83ECFAE0A3C8C582C8CC3B
:10079000C583CCF0A3C8C582C8CCC583CCDFEADE54
:1007A000E880DB89828A83E493A3F208DFF980CCB6
:1007B00088F0EF60010E4E60C388F0ED2402B404AF
:1007C0000050B9F582EB2402B4040050AF23234556
:0607D00082239007307344
:1007D600BB010689828A83E0225002E722BBFE0221
:0907E600E32289828A83E4932254
:1007EF00BB010CE58229F582E5833AF583E02250BF
:1007FF0006E92582F8E622BBFE06E92582F8E22209
:0D080F00E58229F582E5833AF583E4932222
:10081C00BB010689828A83F0225002F722BBFE01BB
:02082C00F322B5
:10082E00F8BB010DE58229F582E5833AF583E8F000
:10083E00225006E92582C8F622BBFE05E92582C8AC
:02084E00F22294
:10085000EF8DF0A4A8F0CF8CF0A428CE8DF0A42EBC
:02086000FE2276
:10086200F5F0C582A4C582C5F0C583A42583F583AE
:010872002263
:09087300EBF0A3EAF0A3E9F02286
:10087C00BB010DE58229F582E5833AF5830208E791
:10088C005007E92582F80208DEBBFE07E92582F84D
:10089C00020907E58229F582E5833AF583020910FE
:0608AC008A838982E473D7
:10037B00E5082490F582E43403F583E00508229028
:10038B00038D300703900390E475F0011208F0021F
:10039B0007D62000E97F2ED2008018EF540F24904F
:1003AB00D43440D4FF30040BEF24BFB41A005003F5
:1003BB002461FFE50960021509050CE50C700205C7
:1003CB000B30070E90038DE475F0011208F0EF026D
:1003DB00081C0223577403D2078003E4C207F508F5
:1003EB0090038D120873E4F509F50BF50CE5096024
:1003FB00077F201203BE80F5750AFFC201C200C23F
:10040B0002C203C205C206C20812038AFF700D3076
:10041B0007057F001203CFAF0CAE0B22B4255FC2D2
:10042B00D5C20412038AFF24D0B40A00501A75F007
:10043B000A780930D50508B6FF0106C6A426F620B2
:10044B00D5047002D20380D924CFB41A00EF500424
:10045B00C2E5D2040205D0D20180C6D20080C0D240
:10046B000280BCD2D580BAD20580B47F201203BEE5
:10047B002002077401B5090040F112037BFF120340
:10048B00BE0203F8D208D206809512037BFB12033F
:10049B007BFA12037BF94A4B700679A17A067BFF34
:1004AB0020022EE509602A7E008E827583001207DA
:1004BB00EF60060EEE650A70F0C2D5EBC0E0EAC045
:1004CB00E0E9C0E0EE120617D0E0F9D0E0FAD0E098
:1004DB00FB1207D6FF60AAEBC0E0EAC0E0E9C0E080
:1004EB001203BED0E02401F9D0E03400FAD0E0FBD7
:1004FB00E50A0460DCD50AD980877BFF7A0679137D
:10050B00D202809C791080027908C206C20880084A
:10051B00D2D5790A8004790AC2D5E50A047002F5AE
:10052B000AE4FAFDFEFF12037BFC7B082001131289
:10053B00037BFD7B1030000A12037BFE12037BFF53
:10054B007B20EC3382D592D55013C3E43000069F49
:10055B00FFE49EFEE42001039DFDE49CFCE4CBF84C
:10056B00C201EC700CCFCECDCCE824F8F870F38040
:10057B0017C3EF33FFEE33FEED33FDEC33FCEB3300
:10058B00FB994002FB0FD8E9EB300105F8D0E0C432
:10059B0048B201C0E00AEC4D4E4F78207B0070C290
:1005AB00EAB50A0040BCC0E0120619D0F0D0E0203A
:1005BB000104C4C0E0C4B201C0F01203A7D0F0D54F
:1005CB00F0EB0203F812091C049553050F5804664F
:1005DB004C04624205134F051B44051B49047B4326
:0805EB00052155050546050533
:1005F3004505054706C150046A2D046E2E04912B50
:10060300047223048F2006AA2A042A4800000489BE
:100613003F3F3F00790AA2D5200314300509B910E2
:10062300020404B9080104A2D520060250010420E3
:1006330002689202B509005034C0E07F20300319EC
:100643007F30A20272067205500F120670C202C2F8
:1006530006C205C2087F30800F300503E9C0E012EF
:1006630003BE300503D0E0F9D0E0B509CC3005175F
:100673007F30B9100C1203BE7F583004077F788097
:1006830003B908031203BE3002057F2D0203BE7FA8
:10069300202008F87F2B2006F322920280CF286EB9
:1006A300756C6C2900D20112037B3001F8C201780A
:1006B3000930D50108F602042A2D50434958120384
:1006C3007B2403B405004001E49006BC931203AFFE
:0D06D300743A1203AFD20375090402050F3B
:102240001207D6601CFF09E970010AC0E0EAC0E08D
:10225000EBC0E0122357D0E0FBD0E0FAD0E0F980E9
:0A226000DF7F0A122357E4FEFF227D
:101C1E00900375EBF0A3EAF0A3E9F0E490037DF0F6
:101C2E00A3F090037B74FFF5F01208C845F0603CFA
:101C3E00900378E0FBA3E0FAA3E0F91207D6FF9039
:101C4E000375E0FBA3E0FAA3E0F990037DE475F0E1
:101C5E00011208C885F082F583EF12082EEF60C2DC
:101C6E00900379E475F0011208B280B6900375E026
:081C7E00FBA3E0FAA3E0F92248
:10245600E4FFFE1207D6600C0FEF70010E09E9705B
:05246600F20A80EF22E4
:1008B200C5F0F8A3E028F0C5F0F8E58215827002D1
:0608C2001583E038F0226E
:1008C800A3F8E0C5F025F0F0E582158270021583E3
:0608D800E0C838F0E82240
:0908DE00E6FB08E6FA08E6F9223F
:0908E700E0FBA3E0FAA3E0F92212
:1008F000F8E0FBA3A3E0F925F0F0E5821582700291
:070900001583E0FA38F02234
:09090700E2FB08E2FA08E2F92221
:0C091000E493FB740193FA740293F92243
:10091C00D083D082F8E4937012740193700DA3A36A
:10092C0093F8740193F5828883E47374029368607E
:06093C00EFA3A3A380DF7E
:00000001FF
